{
  "contractName": "Wallet",
  "abi": [
    {
      "inputs": [
        {
          "internalType": "address[]",
          "name": "_owners",
          "type": "address[]"
        },
        {
          "internalType": "uint256",
          "name": "_sigsRequired",
          "type": "uint256"
        }
      ],
      "stateMutability": "nonpayable",
      "type": "constructor"
    },
    {
      "anonymous": false,
      "inputs": [
        {
          "indexed": true,
          "internalType": "address",
          "name": "_account",
          "type": "address"
        },
        {
          "indexed": false,
          "internalType": "uint256",
          "name": "_value",
          "type": "uint256"
        }
      ],
      "name": "Deposited",
      "type": "event"
    },
    {
      "anonymous": false,
      "inputs": [
        {
          "indexed": true,
          "internalType": "uint256",
          "name": "_account",
          "type": "uint256"
        },
        {
          "indexed": false,
          "internalType": "uint256",
          "name": "_transactionIndex",
          "type": "uint256"
        }
      ],
      "name": "Executed",
      "type": "event"
    },
    {
      "anonymous": false,
      "inputs": [
        {
          "indexed": true,
          "internalType": "address",
          "name": "_account",
          "type": "address"
        },
        {
          "indexed": false,
          "internalType": "uint256",
          "name": "_transactionIndex",
          "type": "uint256"
        }
      ],
      "name": "Signed",
      "type": "event"
    },
    {
      "inputs": [
        {
          "internalType": "address",
          "name": "",
          "type": "address"
        }
      ],
      "name": "isOwner",
      "outputs": [
        {
          "internalType": "bool",
          "name": "",
          "type": "bool"
        }
      ],
      "stateMutability": "view",
      "type": "function"
    },
    {
      "inputs": [
        {
          "internalType": "uint256",
          "name": "",
          "type": "uint256"
        }
      ],
      "name": "owners",
      "outputs": [
        {
          "internalType": "address",
          "name": "",
          "type": "address"
        }
      ],
      "stateMutability": "view",
      "type": "function"
    },
    {
      "inputs": [],
      "name": "sigsReq",
      "outputs": [
        {
          "internalType": "uint256",
          "name": "",
          "type": "uint256"
        }
      ],
      "stateMutability": "view",
      "type": "function"
    },
    {
      "inputs": [],
      "name": "deposit",
      "outputs": [
        {
          "internalType": "bool",
          "name": "_success",
          "type": "bool"
        }
      ],
      "stateMutability": "payable",
      "type": "function"
    },
    {
      "inputs": [
        {
          "internalType": "address",
          "name": "_to",
          "type": "address"
        },
        {
          "internalType": "address",
          "name": "_from",
          "type": "address"
        },
        {
          "internalType": "uint256",
          "name": "_value",
          "type": "uint256"
        }
      ],
      "name": "requestTransaction",
      "outputs": [],
      "stateMutability": "nonpayable",
      "type": "function"
    },
    {
      "inputs": [
        {
          "internalType": "uint256",
          "name": "_transactionIndex",
          "type": "uint256"
        }
      ],
      "name": "approveTransaction",
      "outputs": [],
      "stateMutability": "nonpayable",
      "type": "function"
    },
    {
      "inputs": [],
      "name": "getTransactions",
      "outputs": [
        {
          "components": [
            {
              "internalType": "uint256",
              "name": "transactionIndex",
              "type": "uint256"
            },
            {
              "internalType": "address",
              "name": "to",
              "type": "address"
            },
            {
              "internalType": "address",
              "name": "from",
              "type": "address"
            },
            {
              "internalType": "uint256",
              "name": "value",
              "type": "uint256"
            },
            {
              "internalType": "uint256",
              "name": "numSigs",
              "type": "uint256"
            },
            {
              "internalType": "bool",
              "name": "executed",
              "type": "bool"
            }
          ],
          "internalType": "struct Wallet.Transaction[]",
          "name": "_transactions",
          "type": "tuple[]"
        }
      ],
      "stateMutability": "view",
      "type": "function"
    },
    {
      "inputs": [],
      "name": "getBalance",
      "outputs": [
        {
          "internalType": "uint256",
          "name": "_balance",
          "type": "uint256"
        }
      ],
      "stateMutability": "view",
      "type": "function"
    }
  ],
  "bytecode": "0x60806040523480156200001157600080fd5b5060405162001a4938038062001a498339818101604052810190620000379190620003c6565b60008111801562000049575081518111155b6200005357600080fd5b8060058190555081600190805190602001906200007292919062000248565b5060005b82518110156200023f576000838281518110620000bc577f4e487b7100000000000000000000000000000000000000000000000000000000600052603260045260246000fd5b60200260200101519050600073ffffffffffffffffffffffffffffffffffffffff168173ffffffffffffffffffffffffffffffffffffffff16141562000139576040517f08c379a00000000000000000000000000000000000000000000000000000000081526004016200013090620004c6565b60405180910390fd5b60011515600360008373ffffffffffffffffffffffffffffffffffffffff1673ffffffffffffffffffffffffffffffffffffffff16815260200190815260200160002060009054906101000a900460ff1615151415620001d0576040517f08c379a0000000000000000000000000000000000000000000000000000000008152600401620001c790620004a4565b60405180910390fd5b6001600360008373ffffffffffffffffffffffffffffffffffffffff1673ffffffffffffffffffffffffffffffffffffffff16815260200190815260200160002060006101000a81548160ff02191690831515021790555050808062000236906200059a565b91505062000076565b5050506200067a565b828054828255906000526020600020908101928215620002c4579160200282015b82811115620002c35782518260006101000a81548173ffffffffffffffffffffffffffffffffffffffff021916908373ffffffffffffffffffffffffffffffffffffffff1602179055509160200191906001019062000269565b5b509050620002d39190620002d7565b5090565b5b80821115620002f2576000816000905550600101620002d8565b5090565b60006200030d62000307846200051c565b620004e8565b905080838252602082019050828560208602820111156200032d57600080fd5b60005b858110156200036157816200034688826200036b565b84526020840193506020830192505060018101905062000330565b5050509392505050565b6000815190506200037c8162000646565b92915050565b600082601f8301126200039457600080fd5b8151620003a6848260208601620002f6565b91505092915050565b600081519050620003c08162000660565b92915050565b60008060408385031215620003da57600080fd5b600083015167ffffffffffffffff811115620003f557600080fd5b620004038582860162000382565b92505060206200041685828601620003af565b9150509250929050565b60006200042f6012836200054b565b91507f6e6f74206120756e69717565206f776e657200000000000000000000000000006000830152602082019050919050565b600062000471600f836200054b565b91507f696e76616c6964206164647265737300000000000000000000000000000000006000830152602082019050919050565b60006020820190508181036000830152620004bf8162000420565b9050919050565b60006020820190508181036000830152620004e18162000462565b9050919050565b6000604051905081810181811067ffffffffffffffff8211171562000512576200051162000617565b5b8060405250919050565b600067ffffffffffffffff8211156200053a576200053962000617565b5b602082029050602081019050919050565b600082825260208201905092915050565b6000620005698262000570565b9050919050565b600073ffffffffffffffffffffffffffffffffffffffff82169050919050565b6000819050919050565b6000620005a78262000590565b91507fffffffffffffffffffffffffffffffffffffffffffffffffffffffffffffffff821415620005dd57620005dc620005e8565b5b600182019050919050565b7f4e487b7100000000000000000000000000000000000000000000000000000000600052601160045260246000fd5b7f4e487b7100000000000000000000000000000000000000000000000000000000600052604160045260246000fd5b62000651816200055c565b81146200065d57600080fd5b50565b6200066b8162000590565b81146200067757600080fd5b50565b6113bf806200068a6000396000f3fe60806040526004361061007b5760003560e01c806383920e901161004e57806383920e901461014e57806390331ab114610179578063910f18b0146101a4578063d0e30db0146101cd5761007b565b8063025e7c271461008057806312065fe0146100bd578063242232d1146100e85780632f54bf6e14610111575b600080fd5b34801561008c57600080fd5b506100a760048036038101906100a29190610c47565b6101eb565b6040516100b49190611061565b60405180910390f35b3480156100c957600080fd5b506100d261022a565b6040516100df919061119b565b60405180910390f35b3480156100f457600080fd5b5061010f600480360381019061010a9190610c47565b610233565b005b34801561011d57600080fd5b5061013860048036038101906101339190610bcf565b6106c7565b604051610145919061109e565b60405180910390f35b34801561015a57600080fd5b506101636106e7565b604051610170919061107c565b60405180910390f35b34801561018557600080fd5b5061018e61082b565b60405161019b919061119b565b60405180910390f35b3480156101b057600080fd5b506101cb60048036038101906101c69190610bf8565b610831565b005b6101d5610a2c565b6040516101e2919061109e565b60405180910390f35b600181815481106101fb57600080fd5b906000526020600020016000915054906101000a900473ffffffffffffffffffffffffffffffffffffffff1681565b60008054905090565b600360003373ffffffffffffffffffffffffffffffffffffffff1673ffffffffffffffffffffffffffffffffffffffff16815260200190815260200160002060009054906101000a900460ff1661028957600080fd5b60068054905081106102d0576040517f08c379a00000000000000000000000000000000000000000000000000000000081526004016102c79061111b565b60405180910390fd5b6004600082815260200190815260200160002060003373ffffffffffffffffffffffffffffffffffffffff1673ffffffffffffffffffffffffffffffffffffffff16815260200190815260200160002060009054906101000a900460ff161561036e576040517f08c379a00000000000000000000000000000000000000000000000000000000081526004016103659061113b565b60405180910390fd5b600681815481106103a8577f4e487b7100000000000000000000000000000000000000000000000000000000600052603260045260246000fd5b906000526020600020906006020160050160009054906101000a900460ff1615610407576040517f08c379a00000000000000000000000000000000000000000000000000000000081526004016103fe906110fb565b60405180910390fd5b60068181548110610441577f4e487b7100000000000000000000000000000000000000000000000000000000600052603260045260246000fd5b9060005260206000209060060201600301546000541015610497576040517f08c379a000000000000000000000000000000000000000000000000000000000815260040161048e9061117b565b60405180910390fd5b600554600682815481106104d4577f4e487b7100000000000000000000000000000000000000000000000000000000600052603260045260246000fd5b90600052602060002090600602016004015411156106c457600060068281548110610528577f4e487b7100000000000000000000000000000000000000000000000000000000600052603260045260246000fd5b9060005260206000209060060201600301549050600160068381548110610578577f4e487b7100000000000000000000000000000000000000000000000000000000600052603260045260246000fd5b906000526020600020906006020160050160006101000a81548160ff0219169083151502179055506105b581600054610a9990919063ffffffff16565b506000600683815481106105f2577f4e487b7100000000000000000000000000000000000000000000000000000000600052603260045260246000fd5b906000526020600020906006020160010160009054906101000a900473ffffffffffffffffffffffffffffffffffffffff1673ffffffffffffffffffffffffffffffffffffffff16826040516106479061104c565b60006040518083038185875af1925050503d8060008114610684576040519150601f19603f3d011682016040523d82523d6000602084013e610689565b606091505b50509050806106c1577f4e487b7100000000000000000000000000000000000000000000000000000000600052600160045260246000fd5b50505b50565b60036020528060005260406000206000915054906101000a900460ff1681565b60606006805480602002602001604051908101604052809291908181526020016000905b8282101561082257838290600052602060002090600602016040518060c0016040529081600082015481526020016001820160009054906101000a900473ffffffffffffffffffffffffffffffffffffffff1673ffffffffffffffffffffffffffffffffffffffff1673ffffffffffffffffffffffffffffffffffffffff1681526020016002820160009054906101000a900473ffffffffffffffffffffffffffffffffffffffff1673ffffffffffffffffffffffffffffffffffffffff1673ffffffffffffffffffffffffffffffffffffffff16815260200160038201548152602001600482015481526020016005820160009054906101000a900460ff1615151515815250508152602001906001019061070b565b50505050905090565b60055481565b600360003373ffffffffffffffffffffffffffffffffffffffff1673ffffffffffffffffffffffffffffffffffffffff16815260200190815260200160002060009054906101000a900460ff1661088757600080fd5b8060005410156108cc576040517f08c379a00000000000000000000000000000000000000000000000000000000081526004016108c39061115b565b60405180910390fd5b60066040518060c0016040528060068054905081526020018573ffffffffffffffffffffffffffffffffffffffff1681526020018473ffffffffffffffffffffffffffffffffffffffff168152602001838152602001600081526020016000151581525090806001815401808255809150506001900390600052602060002090600602016000909190919091506000820151816000015560208201518160010160006101000a81548173ffffffffffffffffffffffffffffffffffffffff021916908373ffffffffffffffffffffffffffffffffffffffff16021790555060408201518160020160006101000a81548173ffffffffffffffffffffffffffffffffffffffff021916908373ffffffffffffffffffffffffffffffffffffffff160217905550606082015181600301556080820151816004015560a08201518160050160006101000a81548160ff0219169083151502179055505050505050565b6000610a4334600054610ae390919063ffffffff16565b503373ffffffffffffffffffffffffffffffffffffffff167f2da466a7b24304f47e87fa2e1e5a81b9831ce54fec19055ce277ca2f39ba42c434604051610a8a919061119b565b60405180910390a26001905090565b6000610adb83836040518060400160405280601e81526020017f536166654d6174683a207375627472616374696f6e206f766572666c6f770000815250610b41565b905092915050565b6000808284610af29190611216565b905083811015610b37576040517f08c379a0000000000000000000000000000000000000000000000000000000008152600401610b2e906110db565b60405180910390fd5b8091505092915050565b6000838311158290610b89576040517f08c379a0000000000000000000000000000000000000000000000000000000008152600401610b8091906110b9565b60405180910390fd5b5060008385610b98919061126c565b9050809150509392505050565b600081359050610bb48161135b565b92915050565b600081359050610bc981611372565b92915050565b600060208284031215610be157600080fd5b6000610bef84828501610ba5565b91505092915050565b600080600060608486031215610c0d57600080fd5b6000610c1b86828701610ba5565b9350506020610c2c86828701610ba5565b9250506040610c3d86828701610bba565b9150509250925092565b600060208284031215610c5957600080fd5b6000610c6784828501610bba565b91505092915050565b6000610c7c8383610fb3565b60c08301905092915050565b610c91816112a0565b82525050565b610ca0816112a0565b82525050565b6000610cb1826111c6565b610cbb81856111e9565b9350610cc6836111b6565b8060005b83811015610cf7578151610cde8882610c70565b9750610ce9836111dc565b925050600181019050610cca565b5085935050505092915050565b610d0d816112b2565b82525050565b610d1c816112b2565b82525050565b6000610d2d826111d1565b610d378185611205565b9350610d478185602086016112e8565b610d508161134a565b840191505092915050565b6000610d68601b83611205565b91507f536166654d6174683a206164646974696f6e206f766572666c6f7700000000006000830152602082019050919050565b6000610da8602a83611205565b91507f74686973207472616e73616374696f6e2068617320616c72656164792062656560008301527f6e206578656375746564000000000000000000000000000000000000000000006020830152604082019050919050565b6000610e0e602b83611205565b91507f74686973207472616e73616374696f6e20686173206e6f74207965742062656560008301527f6e207265717565737465640000000000000000000000000000000000000000006020830152604082019050919050565b6000610e74602a83611205565b91507f757365722068617320616c726561647920617070726f7665642074686973207460008301527f72616e73616374696f6e000000000000000000000000000000000000000000006020830152604082019050919050565b6000610eda603583611205565b91507f6e6f7420656e6f7567682066756e647320696e207468652077616c6c6574207460008301527f6f2072657175657374207472616e73616374696f6e00000000000000000000006020830152604082019050919050565b6000610f406000836111fa565b9150600082019050919050565b6000610f5a603583611205565b91507f6e6f7420656e6f7567682066756e647320696e207468652077616c6c6574207460008301527f6f20617070726f7665207472616e73616374696f6e00000000000000000000006020830152604082019050919050565b60c082016000820151610fc9600085018261102e565b506020820151610fdc6020850182610c88565b506040820151610fef6040850182610c88565b506060820151611002606085018261102e565b506080820151611015608085018261102e565b5060a082015161102860a0850182610d04565b50505050565b611037816112de565b82525050565b611046816112de565b82525050565b600061105782610f33565b9150819050919050565b60006020820190506110766000830184610c97565b92915050565b600060208201905081810360008301526110968184610ca6565b905092915050565b60006020820190506110b36000830184610d13565b92915050565b600060208201905081810360008301526110d38184610d22565b905092915050565b600060208201905081810360008301526110f481610d5b565b9050919050565b6000602082019050818103600083015261111481610d9b565b9050919050565b6000602082019050818103600083015261113481610e01565b9050919050565b6000602082019050818103600083015261115481610e67565b9050919050565b6000602082019050818103600083015261117481610ecd565b9050919050565b6000602082019050818103600083015261119481610f4d565b9050919050565b60006020820190506111b0600083018461103d565b92915050565b6000819050602082019050919050565b600081519050919050565b600081519050919050565b6000602082019050919050565b600082825260208201905092915050565b600081905092915050565b600082825260208201905092915050565b6000611221826112de565b915061122c836112de565b9250827fffffffffffffffffffffffffffffffffffffffffffffffffffffffffffffffff038211156112615761126061131b565b5b828201905092915050565b6000611277826112de565b9150611282836112de565b9250828210156112955761129461131b565b5b828203905092915050565b60006112ab826112be565b9050919050565b60008115159050919050565b600073ffffffffffffffffffffffffffffffffffffffff82169050919050565b6000819050919050565b60005b838110156113065780820151818401526020810190506112eb565b83811115611315576000848401525b50505050565b7f4e487b7100000000000000000000000000000000000000000000000000000000600052601160045260246000fd5b6000601f19601f8301169050919050565b611364816112a0565b811461136f57600080fd5b50565b61137b816112de565b811461138657600080fd5b5056fea26469706673582212208f7c1477402eba3e9cae7aae6aae514d4e5391570aca82a6f3d042174421516264736f6c63430008000033",
  "immutableReferences": {},
  "source": "pragma solidity 0.8.0;\nimport \"./SafeMath.sol\";\n\ncontract Wallet {\n  /// @title A multi-signature wallet that requires the approval of a certain number of owners to execute transactions.\n  /// @author Eerina Haque\n  /// @notice This wallet allows only for deposits and transfers. There is no interaction with external contracts or applications.\n  using SafeMath for uint;\n\n  uint contractBalance;\n  address[] public owners;\n  uint numOwners;\n  mapping(address => bool) public isOwner;\n  mapping(uint => mapping(address => bool)) isSigned;\n  uint public sigsReq;\n\n  struct Transaction {\n    uint transactionIndex;\n    address to;\n    address from;\n    uint value;\n    uint numSigs;\n    bool executed;\n  }\n\n  Transaction[] transactions;\n\n  constructor(address[] memory _owners, uint _sigsRequired) {\n    require(_sigsRequired > 0 && _sigsRequired <= _owners.length);\n    sigsReq = _sigsRequired;\n    owners = _owners;\n    for (uint i = 0; i < _owners.length; i++) {\n      address owner = _owners[i];\n      require(owner != address(0), \"invalid address\");\n      require(isOwner[owner] != true, \"not a unique owner\");\n      isOwner[owner] = true;\n    }\n  }\n\n  /* events */\n  /// @notice Logs the value of funda deposited into the contract. It can be\n  /// queried by the address of the account that deposited.\n  /// @param _account The account that deposited funds.\n  /// @param _value The value of the funds that were transacted.\n  event Deposited(address indexed _account, uint _value);\n\n  /// @notice Logs the index of an approved transaction. It can be queried by\n  /// the address of the account that approved it.\n  /// @param _account The account that approved the transaction.\n  /// @param _transactionIndex The index of the transaction that was approved.\n  event Signed(address indexed _account, uint _transactionIndex);\n\n  /// @notice Logs the index of an executed transaction. It can be queried by\n  /// the address of the account that executed it.\n  /// @param _account The account that executed the transaction.\n  /// @param _transactionIndex The index of the transaction that was executed.\n  event Executed(uint indexed _account, uint _transactionIndex);\n\n  /* modifiers */\n  modifier onlyOwner {\n    require(isOwner[msg.sender]);\n    _;\n  }\n\n  /// @notice Allows any user to deposit funds into the contract.\n  function deposit() public payable returns(bool _success) {\n    contractBalance.add(msg.value);\n    emit Deposited(msg.sender, msg.value);\n    _success = true;\n  }\n\n  /// @notice Allows an owner to create a request for transferring funds out of\n  /// the wallet.\n  /// @param _to The address that the funds are being sent to.\n  /// @param _value The value of the funds that are being transferred.\n  function requestTransaction(address _to, address _from, uint _value) public onlyOwner {\n    require(contractBalance >= _value, \"not enough funds in the wallet to request transaction\");\n    transactions.push(Transaction({\n      transactionIndex: transactions.length,\n      to : _to,\n      from: _from,\n      value: _value,\n      numSigs: 0,\n      executed: false\n    }));\n  }\n\n  /// @notice Allows an owner to approve a specified transaction. Automatically\n  /// executes transaction if the required number of approvals are met.\n  /// @param _transactionIndex The index of the transaction that is to be approved.\n  function approveTransaction(uint _transactionIndex) public onlyOwner {\n    require(_transactionIndex < transactions.length, \"this transaction has not yet been requested\");\n    require(!isSigned[_transactionIndex][msg.sender], \"user has already approved this transaction\");\n    require(!transactions[_transactionIndex].executed, \"this transaction has already been executed\");\n    require(contractBalance >= transactions[_transactionIndex].value,\n      \"not enough funds in the wallet to approve transaction\");\n\n    if(transactions[_transactionIndex].numSigs > sigsReq) {\n      uint transferValue = transactions[_transactionIndex].value;\n      transactions[_transactionIndex].executed = true;\n      contractBalance.sub(transferValue);\n      (bool success,) = transactions[_transactionIndex].to.call{value: transferValue}(\"\");\n      assert(success);\n    }\n  }\n\n  /// @notice Gives any user access to all of the transactions that have been requested.\n  /// @return _transactions All of the transactions that have been requested in\n  ///  this contract.\n  function getTransactions() public view returns(Transaction[] memory _transactions) {\n    _transactions = transactions;\n  }\n\n  function getBalance() public view returns(uint _balance) {\n    _balance = contractBalance;\n  }\n}\n",
  "sourcePath": "/Users/eerinahaque/Downloads/CS/Solidity/MultiSigWallet/contracts/Wallet.sol",
  "compiler": {
    "name": "solc",
    "version": "0.8.0+commit.c7dfd78e.Emscripten.clang"
  },
  "schemaVersion": "3.4.1",
  "updatedAt": "2021-07-22T04:58:47.785Z",
  "devdoc": {
    "events": {
      "Deposited(address,uint256)": {
        "params": {
          "_account": "The account that deposited funds.",
          "_value": "The value of the funds that were transacted."
        }
      },
      "Executed(uint256,uint256)": {
        "params": {
          "_account": "The account that executed the transaction.",
          "_transactionIndex": "The index of the transaction that was executed."
        }
      },
      "Signed(address,uint256)": {
        "params": {
          "_account": "The account that approved the transaction.",
          "_transactionIndex": "The index of the transaction that was approved."
        }
      }
    },
    "kind": "dev",
    "methods": {
      "approveTransaction(uint256)": {
        "params": {
          "_transactionIndex": "The index of the transaction that is to be approved."
        }
      },
      "getTransactions()": {
        "returns": {
          "_transactions": "All of the transactions that have been requested in  this contract."
        }
      },
      "requestTransaction(address,address,uint256)": {
        "params": {
          "_to": "The address that the funds are being sent to.",
          "_value": "The value of the funds that are being transferred."
        }
      }
    },
    "version": 1
  },
  "userdoc": {
    "events": {
      "Deposited(address,uint256)": {
        "notice": "Logs the value of funda deposited into the contract. It can be queried by the address of the account that deposited."
      },
      "Executed(uint256,uint256)": {
        "notice": "Logs the index of an executed transaction. It can be queried by the address of the account that executed it."
      },
      "Signed(address,uint256)": {
        "notice": "Logs the index of an approved transaction. It can be queried by the address of the account that approved it."
      }
    },
    "kind": "user",
    "methods": {
      "approveTransaction(uint256)": {
        "notice": "Allows an owner to approve a specified transaction. Automatically executes transaction if the required number of approvals are met."
      },
      "deposit()": {
        "notice": "Allows any user to deposit funds into the contract."
      },
      "getTransactions()": {
        "notice": "Gives any user access to all of the transactions that have been requested."
      },
      "requestTransaction(address,address,uint256)": {
        "notice": "Allows an owner to create a request for transferring funds out of the wallet."
      }
    },
    "version": 1
  }
}